{
  "address": "0xCf7Ed3AccA5a467e9e704C703E8D87F634fB0Fc9",
  "abi": [
    {
      "inputs": [
        {
          "internalType": "address",
          "name": "_secret_registry_address",
          "type": "address"
        },
        {
          "internalType": "uint256",
          "name": "_chain_id",
          "type": "uint256"
        },
        {
          "internalType": "uint256",
          "name": "_settlement_timeout_min",
          "type": "uint256"
        },
        {
          "internalType": "uint256",
          "name": "_settlement_timeout_max",
          "type": "uint256"
        },
        {
          "internalType": "uint256",
          "name": "_max_token_networks",
          "type": "uint256"
        }
      ],
      "stateMutability": "nonpayable",
      "type": "constructor"
    },
    {
      "anonymous": false,
      "inputs": [
        {
          "indexed": true,
          "internalType": "address",
          "name": "token_address",
          "type": "address"
        },
        {
          "indexed": true,
          "internalType": "address",
          "name": "token_network_address",
          "type": "address"
        }
      ],
      "name": "TokenNetworkCreated",
      "type": "event"
    },
    {
      "inputs": [],
      "name": "chain_id",
      "outputs": [
        {
          "internalType": "uint256",
          "name": "",
          "type": "uint256"
        }
      ],
      "stateMutability": "view",
      "type": "function"
    },
    {
      "inputs": [
        {
          "internalType": "address",
          "name": "contract_address",
          "type": "address"
        }
      ],
      "name": "contractExists",
      "outputs": [
        {
          "internalType": "bool",
          "name": "",
          "type": "bool"
        }
      ],
      "stateMutability": "view",
      "type": "function"
    },
    {
      "inputs": [
        {
          "internalType": "address",
          "name": "_token_address",
          "type": "address"
        },
        {
          "internalType": "uint256",
          "name": "_channel_participant_deposit_limit",
          "type": "uint256"
        },
        {
          "internalType": "uint256",
          "name": "_token_network_deposit_limit",
          "type": "uint256"
        }
      ],
      "name": "createERC20TokenNetwork",
      "outputs": [
        {
          "internalType": "address",
          "name": "token_network_address",
          "type": "address"
        }
      ],
      "stateMutability": "nonpayable",
      "type": "function"
    },
    {
      "inputs": [],
      "name": "deprecation_executor",
      "outputs": [
        {
          "internalType": "address",
          "name": "",
          "type": "address"
        }
      ],
      "stateMutability": "view",
      "type": "function"
    },
    {
      "inputs": [],
      "name": "max_token_networks",
      "outputs": [
        {
          "internalType": "uint256",
          "name": "",
          "type": "uint256"
        }
      ],
      "stateMutability": "view",
      "type": "function"
    },
    {
      "inputs": [],
      "name": "secret_registry_address",
      "outputs": [
        {
          "internalType": "address",
          "name": "",
          "type": "address"
        }
      ],
      "stateMutability": "view",
      "type": "function"
    },
    {
      "inputs": [],
      "name": "settlement_timeout_max",
      "outputs": [
        {
          "internalType": "uint256",
          "name": "",
          "type": "uint256"
        }
      ],
      "stateMutability": "view",
      "type": "function"
    },
    {
      "inputs": [],
      "name": "settlement_timeout_min",
      "outputs": [
        {
          "internalType": "uint256",
          "name": "",
          "type": "uint256"
        }
      ],
      "stateMutability": "view",
      "type": "function"
    },
    {
      "inputs": [],
      "name": "token_network_created",
      "outputs": [
        {
          "internalType": "uint256",
          "name": "",
          "type": "uint256"
        }
      ],
      "stateMutability": "view",
      "type": "function"
    },
    {
      "inputs": [
        {
          "internalType": "address",
          "name": "",
          "type": "address"
        }
      ],
      "name": "token_to_token_networks",
      "outputs": [
        {
          "internalType": "address",
          "name": "",
          "type": "address"
        }
      ],
      "stateMutability": "view",
      "type": "function"
    }
  ],
  "transactionHash": "0x7623e26e15683fb063e3b6fc33e1fa2382c57257fd29649ddc4507c49ab521c3",
  "args": [
    "0x9fE46736679d2D9a65F0992F2272dE9f3c7fa6e0",
    420,
    10,
    50,
    1
  ],
  "solcInputHash": "8492a103e0c03205830d91d701354eec",
  "bytecode": "0x6080604052600060066200001262000221565b50503480156200002c576000806200002962000285565b50505b50604051620049d9380380620049d9833981810160405260a08110156200005d576000806200005a62000285565b50505b810190808051929190602001805192919060200180519291906020018051929190602001805192505050836200009d576000806200009a62000285565b50505b60008311620000b657600080620000b362000285565b50505b60008211620000cf57600080620000cc62000285565b50505b828211620000e757600080620000e462000285565b50505b6001600160a01b03851662000106576000806200010362000285565b50505b62000111856200020a565b62000126576000806200012362000285565b50505b600081116200013f576000806200013c62000285565b50505b8460006001816200014f620002f2565b816001600160a01b0302191690836001600160a01b03160217906200017362000221565b50505083600181906200018562000221565b50505082600281906200019762000221565b5050508160038190620001a962000221565b5050508060048190620001bb62000221565b5050505a620001c96200033f565b6005600181620001d8620002f2565b816001600160a01b0302191690836001600160a01b0316021790620001fc62000221565b5050505050505050620003d3565b600080826200021862000386565b15159392505050565b6322bd64c0598160e01b8152836004820152846024820152600081604483336000905af158600e01573d6000803e3d6000fd5b3d6001141558600a015760016000f35b60005b6040811015620002805760008282015260200162000267565b505050565b632a2a7adb598160e01b8152600481016020815285602082015260005b86811015620002bf578086015182820160400152602001620002a2565b506020828760640184336000905af158600e01573d6000803e3d6000fd5b3d6001141558600a015760016000f35b505050565b6303daa959598160e01b8152836004820152602081602483336000905af158600e01573d6000803e3d6000fd5b3d6001141558600a015760016000f35b8051600082529350602062000267565b6373509064598160e01b8152602081600483336000905af158600e01573d6000803e3d6000fd5b3d6001141558600a015760016000f35b8051600082529350602062000267565b638435035b598160e01b8152836004820152602081602483336000905af158600e01573d6000803e3d6000fd5b3d6001141558600a015760016000f35b8051600082529350602062000267565b6145f680620003e36000396000f3fe60806040523480156200001c5760008062000019620004f7565b50505b5060043610620000a55760003560e01c80630fabd9e714620000b5578063224df42f146200010557806323aa817414620001215780633af973b1146200012b5780637709bc781462000135578063b0228f1e146200017d578063b61c40831462000187578063b8378f751462000191578063cc2799c7146200019b578063d0ad4bec14620001db575b600080620000b2620004f7565b50505b620000e960048036036020811015620000d857600080620000d5620004f7565b50505b50356001600160a01b0316620001e5565b6040516001600160a01b03909116815260200160405180910390f35b6200010f62000214565b60405190815260200160405180910390f35b620000e962000223565b6200010f62000231565b6200016960048036036020811015620001585760008062000155620004f7565b50505b50356001600160a01b03166200023d565b604051901515815260200160405180910390f35b6200010f62000254565b6200010f62000260565b6200010f6200026c565b620000e960048036036060811015620001be57600080620001bb620004f7565b50505b506001600160a01b03813516906020810135906040013562000278565b620000e9620004ea565b6007602052806000526040600020600091506200020162000564565b906101000a90046001600160a01b031681565b60036200022062000564565b81565b600060056200020162000564565b60016200022062000564565b600080826200024b620005c6565b15159392505050565b60046200022062000564565b60066200022062000564565b60026200022062000564565b600060046200028662000564565b60066200029262000564565b10620002df5760405162461bcd60e51b815260206004820152600d60248201526c1c9959da5cdd1c9e48199d5b1b609a1b604482015260640160405180910390620002dc620004f7565b50505b6001600160a01b03841660009081526007602052604081206000906200030462000564565b906101000a90046001600160a01b03166001600160a01b031614620003335760008062000330620004f7565b50505b60066200033f62000564565b6001018060066200034f62000613565b5050506000846000806200036262000564565b906101000a90046001600160a01b031660016200037e62000564565b60026200038a62000564565b60036200039662000564565b60006005620003a462000564565b906101000a90046001600160a01b03168989604051620003c49062000662565b80896001600160a01b03168152602001886001600160a01b03168152602001878152602001868152602001858152602001846001600160a01b03168152602001838152602001828152602001985050505050505050506040518091039060006200042d62000670565b5050801580156200044d573d6000803e3d60006200044a620004f7565b50505b506001600160a01b038616600090815260076020529092508291508190604090206001816200047b62000564565b816001600160a01b0302191690836001600160a01b03160217906200049f62000613565b505050816001600160a01b0316856001600160a01b03167ff11a7558a113d9627989c5edf26cbd19143b7375248e621c8e30ac9e0847dc3f60405160405180910390a3509392505050565b6000806200020162000564565b632a2a7adb598160e01b8152600481016020815285602082015260005b868110156200053157808601518282016040015260200162000514565b506020828760640184336000905af158600e01573d6000803e3d6000fd5b3d6001141558600a015760016000f35b505050565b6303daa959598160e01b8152836004820152602081602483336000905af158600e01573d6000803e3d6000fd5b3d6001141558600a015760016000f35b8051935060005b6040811015620005c157600082820152602001620005a8565b505050565b638435035b598160e01b8152836004820152602081602483336000905af158600e01573d6000803e3d6000fd5b3d6001141558600a015760016000f35b80516000825293506020620005a8565b6322bd64c0598160e01b8152836004820152846024820152600081604483336000905af158600e01573d6000803e3d6000fd5b3d6001141558600a015760016000f35b600081526020620005a8565b613ef980620006fd83390190565b6314aa2ff7598160e01b8152600481016020815286602082015260005b87811015620006aa5780870151828201604001526020016200068d565b506020828860640184336000905af158600e01573d6000803e3d6000fd5b3d6001141558600a015760016000f35b8151965059825b81811015620006f55760008152602001620006df565b505050505056fe608060405260006008600160a01b81620000186200039f565b8160ff021916908315150217906200002f62000401565b5050503480156200004a576000806200004762000450565b50505b5060405162003ef938038062003ef98339810160408190526200006d916200062d565b6001600160a01b0388166200008c576000806200008962000450565b50505b6001600160a01b038716620000ab57600080620000a862000450565b50505b6001600160a01b038316620000ca57600080620000c762000450565b50505b60008611620000e357600080620000e062000450565b50505b60008511620000fc57600080620000f962000450565b50505b84841162000114576000806200011162000450565b50505b6200011f8862000386565b62000134576000806200013162000450565b50505b6200013f8762000386565b62000154576000806200015162000450565b50505b600082116200016d576000806200016a62000450565b50505b6000811162000186576000806200018362000450565b50505b818110156200019f576000806200019c62000450565b50505b876000600181620001af6200039f565b816001600160a01b0302191690836001600160a01b0316021790620001d362000401565b50505086600160006101000a81620001ea6200039f565b816001600160a01b0302191690836001600160a01b03160217906200020e62000401565b50505085600281906200022062000401565b50505084600381906200023262000401565b50505083600481906200024462000401565b505050600080600090620002576200039f565b906101000a90046001600160a01b03166001600160a01b03166318160ddd6040518163ffffffff1660e01b815260040160206040518083038186806200029c620004bd565b158015620002b457600080620002b162000450565b50505b505a620002c06200050a565b5050505050158015620002e2573d6000803e3d6000620002df62000450565b50505b50505050604051601f3d908101601f19168201604052620003079190810190620006b2565b116200031d576000806200031a62000450565b50505b8260086001816200032d6200039f565b816001600160a01b0302191690836001600160a01b03160217906200035162000401565b50505081600581906200036362000401565b50505080600681906200037562000401565b5050505050505050505050620006d8565b6000808262000394620004bd565b15159150505b919050565b6303daa959598160e01b8152836004820152602081602483336000905af158600e01573d6000803e3d6000fd5b3d6001141558600a015760016000f35b8051935060005b6040811015620003fc57600082820152602001620003e3565b505050565b6322bd64c0598160e01b8152836004820152846024820152600081604483336000905af158600e01573d6000803e3d6000fd5b3d6001141558600a015760016000f35b600081526020620003e3565b632a2a7adb598160e01b8152600481016020815285602082015260005b868110156200048a5780860151828201604001526020016200046d565b506020828760640184336000905af158600e01573d6000803e3d6000fd5b3d6001141558600a015760016000f35b505050565b638435035b598160e01b8152836004820152602081602483336000905af158600e01573d6000803e3d6000fd5b3d6001141558600a015760016000f35b80516000825293506020620003e3565b638540661f598160e01b815262000540565b8080831115620005295750815b92915050565b808083101562000529575090919050565b836004820152846024820152606060448201528660648201526084810160005b888110156200057a57808801518282015260200162000560565b506060828960a40184336000905af158600e01573d6000803e3d6000fd5b3d6001141558600a015760016000f35b815160408301513d6000853e8b8b82606087013350600060045af15059620005d18d3d6200052f565b8c01620005df81876200051c565b5b82811015620005f65760008152602001620005e0565b50929c50505050505050565b6000815190506001600160a01b03811681146200039a576000806200062662000450565b5050919050565b600080600080600080600080610100898b031215620006555783846200065262000450565b50505b620006608962000602565b97506200067060208a0162000602565b96506040890151955060608901519450608089015193506200069560a08a0162000602565b925060c0890151915060e089015190509295985092959890939650565b600060208284031215620006cf578081620006cc62000450565b50505b81519392505050565b61381180620006e86000396000f3fe608060405234801561001957600080610016612c5c565b50505b506004361061015d5760003560e01c806303d9d2531461016b5780630a798f24146101805780630fcc0c28146101a9578063224df42f146101b157806323aa8174146101b957806324d73a93146101ce5780633af973b1146101d65780634845be76146101de578063524bef8a146101e65780635d6e441b146101f957806363ea014314610201578063679b37631461021457806371e759921461021c5780637709bc78146102245780637c4734f41461024457806382fd779514610257578063838d6e051461026a578063938bcd671461028b5780639cadb1591461029e5780639e67ca5f146102b1578063b7506d70146102c4578063b8378f75146102cc578063ca463cce146102d4578063e5949b5d146102e7578063ee4516d9146102fa578063fadc554b14610320578063fc0c546a14610333578063fe49ba1c1461033b575b600080610168612c5c565b50505b61017e61017936600461348e565b61034e565b005b61019361018e3660046131f5565b610685565b6040516101a0919061377e565b60405180910390f35b61017e610984565b610193610a72565b6101c1610a7f565b6040516101a09190613722565b6101c1610a9e565b610193610aaa565b610193610ab4565b6101936101f4366004613271565b610abe565b610193610ad6565b61017e61020f366004613505565b610ae0565b610193610f3b565b610193610f45565b610237610232366004613197565b610f4b565b6040516101a09190613773565b6101936102523660046131ba565b610f62565b61017e6102653660046133cb565b611027565b61027d6102783660046132b5565b611221565b6040516101a09291906137a2565b6101936102993660046131ba565b61130c565b61017e6102ac366004613553565b61139b565b61017e6102bf3660046135d2565b611403565b6102376117d5565b6101936117ee565b61017e6102e2366004613686565b6117f8565b61027d6102f5366004613271565b611ccf565b61030d6103083660046132b5565b611d06565b6040516101a097969594939291906137c0565b61017e61032e3660046132f9565b611dd0565b6101c161204e565b6101936103493660046132b5565b612059565b610358838361130c565b84141561036d5760008061036a612c5c565b50505b6000848152600960205260408120600101600090610389612cc7565b906101000a900460ff16600481111561039e57fe5b146103b1576000806103ae612c5c565b50505b60008060008060006103c2866120b6565b90945092506103d289888a612059565b6000818152600b602052909550604081209050806001016103f1612cc7565b925084816103fd612cc7565b146104105760008061040d612c5c565b50505b6000831161042657600080610423612c5c565b50505b6104308484612117565b6000878152600b60205290945084840392506040902060008082610452612d22565b505060018201600090610463612d22565b50505050876001600160a01b0316896001600160a01b03168b7f8c03cf01b3d4e6068cc494e6fe02aa9e3d4af069d37c32ecc3b241af5c37e6c08888876040516104af9392919061370c565b60405180910390a4831561058e576000806104c8612cc7565b906101000a90046001600160a01b03166001600160a01b031663a9059cbb8a866040518363ffffffff1660e01b815260040161050592919061375a565b6020604051808303816000878061051a612d70565b15801561052f5760008061052c612c5c565b50505b505a610539612dbc565b505050505050158015610559573d6000803e3d6000610556612c5c565b50505b50505050604051601f3d908101601f1916820160405261057c9190810190613239565b61058e5760008061058b612c5c565b50505b81156106655760008061059f612cc7565b906101000a90046001600160a01b03166001600160a01b031663a9059cbb89846040518363ffffffff1660e01b81526004016105dc92919061375a565b602060405180830381600087806105f1612d70565b15801561060657600080610603612c5c565b50505b505a610610612dbc565b505050505050158015610630573d6000803e3d600061062d612c5c565b50505b50505050604051601f3d908101601f191682016040526106539190810190613239565b61066557600080610662612c5c565b50505b8183101561066f57fe5b8383101561067957fe5b50505050505050505050565b600060146008610693612cc7565b60ff6101009290920a900416156106b2576000806106af612c5c565b50505b8160036106bd612cc7565b8110156106d2576000806106cf612c5c565b50505b60046106dc612cc7565b8111156106f1576000806106ee612c5c565b50505b60008060066106fe612cc7565b600080610709612cc7565b906101000a90046001600160a01b03166001600160a01b03166370a082315a63996d79a5598160e01b8152602081600483336000905af158600e01573d6000803e3d6000fd5b3d6001141558600a015760016000f35b8051925060005b604081101561077d57600082820152602001610766565b5050506040518263ffffffff1660e01b815260040161079c9190613722565b60206040518083038186806107af612d70565b1580156107c4576000806107c1612c5c565b50505b505a6107ce612ea7565b50505050501580156107ed573d6000803e3d60006107ea612c5c565b50505b50505050604051601f3d908101601f191682016040526108109190810190613292565b1061082357600080610820612c5c565b50505b6001600760008282610833612cc7565b019250508190610841612d22565b505050600761084e612cc7565b905061085a8787610f62565b6000818152600a60205290925060409020610873612cc7565b1561088657600080610883612c5c565b50505b6000828152600a60205281906040902081906108a0612d22565b50505060008181526009602052604081209050806108bc612cc7565b156108c357fe5b600080600183016108d2612cc7565b906101000a900460ff1660048111156108e757fe5b146108ee57fe5b8580826108f9612d22565b506001915050818101818161090c612cc7565b8160ff0219169083600481111561091f57fe5b02179061092a612d22565b505050866001600160a01b0316886001600160a01b0316837f669a4b0ac0b9994c0f82ed4dbe07bb421fe74e5951725af4f139c7443ebf049d89604051610971919061377e565b60405180910390a4509695505050505050565b60146008610990612cc7565b60ff6101009290920a900416156109af576000806109ac612c5c565b50505b600060086109bb612cc7565b906101000a90046001600160a01b03166001600160a01b03165a6109dd612f6d565b6001600160a01b0316146109f9576000806109f6612c5c565b50505b60016008600160a01b81610a0b612cc7565b8160ff02191690831515021790610a20612d22565b5050507f6151930a846a85f5e64d2dd1cc5deeafb010c63eec4b600458158edd0e33f15d6008601490610a51612cc7565b906101000a900460ff16604051610a689190613773565b60405180910390a1565b6004610a7c612cc7565b81565b60006008610a8b612cc7565b906101000a90046001600160a01b031681565b60006001610a8b612cc7565b6002610a7c612cc7565b6006610a7c612cc7565b600a6020528060005260406000209050610a7c612cc7565b6005610a7c612cc7565b60146008610aec612cc7565b60ff6101009290920a90041615610b0b57600080610b08612c5c565b50505b8360016000828152600960205260409020600101600090610b2a612cc7565b906101000a900460ff166004811115610b3f57fe5b14610b5257600080610b4f612c5c565b50505b610b5c848361130c565b8514610b7057600080610b6d612c5c565b50505b60008311610b8657600080610b83612c5c565b50505b6005610b90612cc7565b831115610ba557600080610ba2612c5c565b50505b600085815260096020528080604081206001600160a01b038816600090815260028201602052909150604081206001600160a01b03871660009081526002840160205290915060408120905081610bfa612cc7565b8803945060008511610c1457600080610c11612c5c565b50505b87851115610c2a57600080610c27612c5c565b50505b878583610c35612cc7565b0114610c3d57fe5b6006610c47612cc7565b85600080610c53612cc7565b906101000a90046001600160a01b03166001600160a01b03166370a082315a63996d79a5598160e01b8152602081600483336000905af158600e01573d6000803e3d6000fd5b3d6001141558600a015760016000f35b8051925060005b6040811015610cc757600082820152602001610cb0565b5050506040518263ffffffff1660e01b8152600401610ce69190613722565b6020604051808303818680610cf9612d70565b158015610d0e57600080610d0b612c5c565b50505b505a610d18612ea7565b5050505050158015610d37573d6000803e3d6000610d34612c5c565b50505b50505050604051601f3d908101601f19168201604052610d5a9190810190613292565b011115610d6f57600080610d6c612c5c565b50505b878083610d7a612d22565b50505080600001610d89612cc7565b82610d92612cc7565b01935081610d9e612cc7565b841015610db357600080610db0612c5c565b50505b6001600160a01b0389168a7f2b55547a3b586ab51f65ee9ce4927fa6d25191388299988e89e059a02f9dd44584610de8612cc7565b604051610df5919061377e565b60405180910390a3600080610e08612cc7565b906101000a90046001600160a01b03166001600160a01b03166323b872dd5a610e2f612f6d565b5a63996d79a5598160e01b8152602081600483336000905af158600e01573d6000803e3d6000fd5b3d6001141558600a015760016000f35b8051925060005b6040811015610e8557600082820152602001610e6e565b505050886040518463ffffffff1660e01b8152600401610ea793929190613736565b60206040518083038160008780610ebc612d70565b158015610ed157600080610ece612c5c565b50505b505a610edb612dbc565b505050505050158015610efb573d6000803e3d6000610ef8612c5c565b50505b50505050604051601f3d908101601f19168201604052610f1e9190810190613239565b61067957600080610f2d612c5c565b505050505050505050505050565b6007610a7c612cc7565b60001981565b60008082610f57612d70565b15159150505b919050565b60006001600160a01b038316610f8057600080610f7d612c5c565b50505b6001600160a01b038216610f9c57600080610f99612c5c565b50505b816001600160a01b0316836001600160a01b03161415610fc457600080610fc1612c5c565b50505b816001600160a01b0316836001600160a01b0316101561100e578282604051602001610ff19291906136c4565b604051602081830303815290604052805190602001209050611021565b8183604051602001610ff19291906136c4565b92915050565b8760016000828152600960205260409020600101600090611046612cc7565b906101000a900460ff16600481111561105b57fe5b1461106e5760008061106b612c5c565b50505b611078878961130c565b891461108c57600080611089612c5c565b50505b60008981526009602052806040812090506002600180830190816110ae612cc7565b8160ff021916908360048111156110c157fe5b0217906110cc612d22565b5050506001600160a01b038916600090815260028201602052600190604090206002016001816110fa612cc7565b8160ff0219169083151502179061110f612d22565b5050505a61111b612fb3565b8160008282611128612cc7565b019250508190611136612d22565b50505060006111556001600261114a612cc7565b8e8c8c8c8c8c61212f565b9050806001600160a01b03168a6001600160a01b03161461117e5760008061117b612c5c565b50505b87156111d05761119b6002611191612cc7565b8d8b8b8b8b61233f565b9250826001600160a01b03168b6001600160a01b0316146111c4576000806111c1612c5c565b50505b6111d082848a8c6124f7565b878a6001600160a01b03168d7f09d2f946e008c38931cd739dd20e35146deff8ab3134caee6d54fe50816a81b88c60405161120b919061377e565b60405180910390a4505050505050505050505050565b600083815260096020528080808060408120905060008060018301611244612cc7565b60ff6101009290920a9004169050600081600481111561126057fe5b14801561126d5750600089115b80156112825750600761127e612cc7565b8911155b156112f557506003611295898989612059565b6000818152600b6020529094506040812090506112b38a898b612059565b6000818152600b602052909450604081209050816001016112d2612cc7565b1580156112e85750806001016112e6612cc7565b155b156112f257600492505b50505b816112fe612cc7565b999098509650505050505050565b60006001600160a01b03831661132a57600080611327612c5c565b50505b6001600160a01b03821661134657600080611343612c5c565b50505b816001600160a01b0316836001600160a01b0316141561136e5760008061136b612c5c565b50505b600061137a8484610f62565b6000818152600a60205290915060409020611393612cc7565b949350505050565b6113f88960405180608001604052808b6001600160a01b031681526020018a8152602001898152602001888152506040518060800160405280886001600160a01b03168152602001878152602001868152602001858152506117f8565b505050505050505050565b8760016000828152600960205260409020600101600090611422612cc7565b906101000a900460ff16600481111561143757fe5b1461144a57600080611447612c5c565b50505b6000806000808a1161146457600080611461612c5c565b50505b885a61146e612fb3565b106114815760008061147e612c5c565b50505b6114cd600261148e612cc7565b8d8d8d8d8d8d8080601f016020809104026020016040519081016040528181529291906020840183838082843760009201919091525061255d92505050565b6001600160a01b03168b6001600160a01b0316146114f3576000806114f0612c5c565b50505b61153f6002611500612cc7565b8d8d8d8d8b8b8080601f016020809104026020016040519081016040528181529291906020840183838082843760009201919091525061255d92505050565b905061154b8b8261130c565b8c1461155f5760008061155c612c5c565b50505b60008c81526009602052604081206001600160a01b038d16600090815260028201602052909150604081206001600160a01b038416600090815260028401602052909150604081209050806115b2612cc7565b826115bb612cc7565b01955085816001016115cb612cc7565b8e0111156115e1576000806115de612c5c565b50505b806001016115ed612cc7565b8d018d111561160457600080611601612c5c565b50505b81600101611610612cc7565b8d0394508c85111561162a57600080611627612c5c565b50505b600085116116405760008061163d612c5c565b50505b8c858360010161164e612cc7565b011461165657fe5b8d6001600160a01b03168f7f98ed0357b86b313fa9f968de5c9d2bcf591432355b34aa1ab7e3e9e92f4284088f604051611690919061377e565b60405180910390a38c80600184016116a6612d22565b5050506000806116b4612cc7565b906101000a90046001600160a01b03166001600160a01b031663a9059cbb8f876040518363ffffffff1660e01b81526004016116f192919061375a565b60206040518083038160008780611706612d70565b15801561171b57600080611718612c5c565b50505b505a611725612dbc565b505050505050158015611745573d6000803e3d6000611742612c5c565b50505b50505050604051601f3d908101601f191682016040526117689190810190613239565b61177a57600080611777612c5c565b50505b81611783612cc7565b86101561178c57fe5b80611795612cc7565b86101561179e57fe5b816004016117aa612cc7565b156117b157fe5b806004016117bd612cc7565b156117c457fe5b505050505050505050505050505050565b601460086117e1612cc7565b906101000a900460ff1681565b6003610a7c612cc7565b60008251905060008251905061180e828261130c565b85146118225760008061181f612c5c565b50505b600061182e8383610f62565b600087815260096020529091506040812090506002600060018301611851612cc7565b906101000a900460ff16600481111561186657fe5b1461187957600080611876612c5c565b50505b5a611882612fb3565b8161188b612cc7565b1061189e5760008061189b612c5c565b50505b6001600160a01b038416600090815260028201602052604081206001600160a01b0385166000908152600284016020529091506040812090506118e18289612714565b6118f3576000806118f0612c5c565b50505b6118fd8188612714565b61190f5760008061190c612c5c565b50505b61192d8289602001518a60400151848b602001518c60400151612797565b6040808c0191909152808c019190915260208a810192909252818b01929092526001600160a01b0388166000908152600286019091522060008082611970612d22565b505060018201600090611981612d22565b505060028201600181611992612cc7565b9060ff021916906119a1612d22565b5050600382016000906119b2612d22565b5050600482016000906119c3612d22565b5050506001600160a01b0386166000908152600285016020526040915020600080826119ed612d22565b5050600182016000906119fe612d22565b505060028201600181611a0f612cc7565b9060ff02191690611a1e612d22565b505060038201600090611a2f612d22565b505060048201600090611a40612d22565b50505060008a81526009602052604091502060008082611a5e612d22565b505060018281019081611a6f612cc7565b9060ff02191690611a7e612d22565b5050506000858152600a6020526040915020600090611a9b612d22565b5050611aa8898987612885565b611ab3898888612885565b887f8db0e7d323ca765ce9ab550780131837e4942ccfea3be2b635ec1084c81f726289602001518a606001518a602001518b60600151604051611af99493929190613787565b60405180910390a2600088602001511115611be357600080611b19612cc7565b906101000a90046001600160a01b03166001600160a01b031663a9059cbb878a602001516040518363ffffffff1660e01b8152600401611b5a92919061375a565b60206040518083038160008780611b6f612d70565b158015611b8457600080611b81612c5c565b50505b505a611b8e612dbc565b505050505050158015611bae573d6000803e3d6000611bab612c5c565b50505b50505050604051601f3d908101601f19168201604052611bd19190810190613239565b611be357600080611be0612c5c565b50505b6000876020015111156113f857600080611bfb612cc7565b906101000a90046001600160a01b03166001600160a01b031663a9059cbb8689602001516040518363ffffffff1660e01b8152600401611c3c92919061375a565b60206040518083038160008780611c51612d70565b158015611c6657600080611c63612c5c565b50505b505a611c70612dbc565b505050505050158015611c90573d6000803e3d6000611c8d612c5c565b50505b50505050604051601f3d908101601f19168201604052611cb39190810190613239565b6113f857600080611cc2612c5c565b5050505050505050505050565b6009602052806000526040600020905080611ce8612cc7565b90600060018201611cf7612cc7565b906101000a900460ff16905082565b600083815260096020528080808080808080604081206001600160a01b038c166000908152600291909101602052604090209050611d458c8c8c612059565b6000818152600b60205290925060408120905081611d61612cc7565b82600101611d6d612cc7565b600060028501611d7b612cc7565b906101000a900460ff1684600301611d91612cc7565b85600401611d9d612cc7565b85611da6612cc7565b86600101611db2612cc7565b99509950995099509950995099505050509397509397509397909450565b611dda898961130c565b8a14611dee57600080611deb612c5c565b50505b86611e0157600080611dfe612c5c565b50505b60008611611e1757600080611e14612c5c565b50505b60008a8152600960205280806040812090506002600060018301611e39612cc7565b906101000a900460ff166004811115611e4e57fe5b14611e6157600080611e5e612c5c565b50505b5a611e6a612fb3565b81611e73612cc7565b1015611e8757600080611e84612c5c565b50505b611f0b600280611e95612cc7565b8f8d8d8d8d8d8080601f01602080910402602001604051908101604052818152929190602084018383808284376000920191909152508f92508e91508190506020601f82018190048102016040519081016040528181529291906020840183838082843760009201919091525061212f92505050565b9250826001600160a01b03168b6001600160a01b031614611f3457600080611f31612c5c565b50505b611f806002611f41612cc7565b8e8c8c8c8c8c8080601f016020809104026020016040519081016040528181529291906020840183838082843760009201919091525061233f92505050565b9150816001600160a01b03168c6001600160a01b031614611fa957600080611fa6612c5c565b50505b6001600160a01b038c16600090815260028201602052604081209050600060028201611fd3612cc7565b906101000a900460ff16611fef57600080611fec612c5c565b50505b611ffb828e8c8e6124f7565b898d6001600160a01b03168f7f6fc5b4f4f9e65bfdc4c45456373906876cee8832b605478e281902468875eaed8e604051612036919061377e565b60405180910390a45050505050505050505050505050565b600080610a8b612cc7565b6000816001600160a01b0316836001600160a01b0316141561208357600080612080612c5c565b50505b838383604051602001612098939291906136e6565b60405160208183030381529060405280519060200120949350505050565b60008060008351905060608106156120d6576000806120d3612c5c565b50505b6020600080805b84841015612101576120ef88856128dd565b915081830192506060840193506120dd565b8780519060200120965091945050505050915091565b60008183116121265782612128565b815b9392505050565b6000806040518060400160405280600381526020016232373760e81b8152509050600060405160408082019052601a81526000805160206137f18339815191526020820152825a63996d79a5598160e01b8152602081600483336000905af158600e01573d6000803e3d6000fd5b3d6001141558600a015760016000f35b8051925060005b60408110156121cb576000828201526020016121b4565b5050508c8e60068111156121db57fe5b8d8d8d8d8d604051602001808b805190602001908083835b602083106122125780518252601f1990920191602091820191016121f3565b6001836020036101000a03801982511681845116179092525050509190910190508a805190602001908083835b6020831061225e5780518252601f19909201916020918201910161223f565b6001836020036101000a038019825116818451168082178552505050505050905001896001600160a01b031660601b815260140188815260200187815260200186815260200185815260200184815260200183815260200182805190602001908083835b602083106122e15780518252601f1990920191602091820191016122c2565b6001836020036101000a0380198251168184511617909252505050919091019b5060409a50505050505050505050505160208183030381529060405280519060200120905061233081856129f1565b9b9a5050505050505050505050565b6000806040518060400160405280600381526020016219189960e91b8152509050600060405160408082019052601a81526000805160206137f18339815191526020820152825a63996d79a5598160e01b8152602081600483336000905af158600e01573d6000803e3d6000fd5b3d6001141558600a015760016000f35b8051925060005b60408110156123db576000828201526020016123c4565b508d9150600190508c8c8c8c604051602001808a805190602001908083835b602083106124195780518252601f1990920191602091820191016123fa565b6001836020036101000a038019825116818451161790925250505091909101905089805190602001908083835b602083106124655780518252601f199092019160209182019101612446565b6001836020036101000a038019825116818451168082178552505050505050905001886001600160a01b031660601b815260140187815260200186815260200185815260200184815260200183815260200182815260200199505050505050505050506040516020818303038152906040528051906020012090506124ea81856129f1565b9998505050505050505050565b6001600160a01b0383166000908152600285016020526040812090508060040161251f612cc7565b831161253357600080612530612c5c565b50505b828060048301612541612d22565b50505081816003018190612553612d22565b5050505050505050565b6000806040518060400160405280600381526020016203230360ec1b8152509050600060405160408082019052601a81526000805160206137f18339815191526020820152825a63996d79a5598160e01b8152602081600483336000905af158600e01573d6000803e3d6000fd5b3d6001141558600a015760016000f35b8051925060005b60408110156125f9576000828201526020016125e2565b508d9150600390508c8c8c8c604051602001808a805190602001908083835b602083106126375780518252601f199092019160209182019101612618565b6001836020036101000a038019825116818451161790925250505091909101905089805190602001908083835b602083106126835780518252601f199092019160209182019101612664565b6001836020036101000a038019825116818451168082178552505050505050905001886001600160a01b031660601b8152601401878152602001868152602001858152602001846001600160a01b031660601b815260140183815260200182815260200199505050505050505050506040516020818303038152906040528051906020012090506124ea81856129f1565b600082600301612722612cc7565b15801561273157508160200151155b801561273f57508160400151155b1561274c57506001611021565b81602001518260400151836060015160405160200161276d9392919061370c565b604051602081830303815290604052805190602001208360030161278f612cc7565b149392505050565b60008060008060008060006127aa612ff9565b6127b2612ff9565b8e6127bb612cc7565b825260018f016127c9612cc7565b6020830152604082018e9052606082018d90528b6127e5612cc7565b815260018c016127f3612cc7565b6020820152604081018b9052606081018a90526128108f8d612afb565b925061281c8282612b31565b94506128288584612117565b94508483039350612839858b612b5d565b9a509450612847848e612b5d565b9d5093508285111561285557fe5b8284111561285f57fe5b898d8587010101831461286e57fe5b50929d919c50999a50959850949650505050505050565b8160400151612893576128d8565b60006128a184845184612059565b6000818152600b602052909150604081209050836060015180826128c3612d22565b50505083604001518060018301612553612d22565b505050565b6000806000806000858751116128fa576000945050505050611021565b8587015193506020860187015192506040860187015190506000600161291e612cc7565b906101000a90046001600160a01b03166001600160a01b031663c1f62946826040518263ffffffff1660e01b8152600401612959919061377e565b602060405180830381868061296c612d70565b1580156129815760008061297e612c5c565b50505b505a61298b612ea7565b50505050501580156129aa573d6000803e3d60006129a7612c5c565b50505b50505050604051601f3d908101601f191682016040526129cd9190810190613292565b91508115806129dc5750818411155b156129e657600092505b509095945050505050565b60008151604114612a0a57600080612a07612c5c565b50505b60008060006020850151925060408501519150606085015160001a9050601b811015612a3457601b015b8060ff16601b1480612a4957508060ff16601c145b612a5b57600080612a58612c5c565b50505b60018682858560405160008152602001604052604051808581526020018460ff1681526020018381526020018281526020019450505050506020604051602081039080840390855a612aab612ea7565b5050505050158015612aca573d6000803e3d6000612ac7612c5c565b50505b5050506020604051035193506001600160a01b038416612af257600080612aef612c5c565b50505b50505092915050565b600081600101612b09612cc7565b83600101612b15612cc7565b83612b1e612cc7565b85612b27612cc7565b0103039392505050565b600061212883518460200151856040015186606001518651876020015188604001518960600151612b80565b600080828411612b6f57600084612b74565b828403835b915091505b9250929050565b6000806000806000612b928b8b612c3b565b9350612b9e8787612c3b565b925083831015612bfa5760405162461bcd60e51b815260206004820152601a6024820152791513954e881d1c985b9cd9995c9cc81b9bdd081bdc99195c995960321b604482015260640160405180910390612bf7612c5c565b50505b8a841015612c0457fe5b86831015612c0e57fe5b8383039150612c1d828e612c3b565b9050612c29818d612b5d565b509d9c50505050505050505050505050565b600060001983830184811015612c515781612c53565b805b95945050505050565b632a2a7adb598160e01b8152600481016020815285602082015260005b86811015612c94578086015182820160400152602001612c79565b506020828760640184336000905af158600e01573d6000803e3d6000fd5b3d6001141558600a015760016000f35b505050565b6303daa959598160e01b8152836004820152602081602483336000905af158600e01573d6000803e3d6000fd5b3d6001141558600a015760016000f35b8051935060005b60408110156128d857600082820152602001612d0b565b6322bd64c0598160e01b8152836004820152846024820152600081604483336000905af158600e01573d6000803e3d6000fd5b3d6001141558600a015760016000f35b600081526020612d0b565b638435035b598160e01b8152836004820152602081602483336000905af158600e01573d6000803e3d6000fd5b3d6001141558600a015760016000f35b80516000825293506020612d0b565b6385979f76598160e01b8152612ded565b8080831115611021575090919050565b8080831015611021575090919050565b836004820152846024820152606060448201528760648201526084810160005b89811015612e25578089015182820152602001612e0d565b506060828a60a40184336000905af158600e01573d6000803e3d6000fd5b3d6001141558600a015760016000f35b815160408301513d6000853e8c8c82606087013350600060045af15059612e7a8e3d612ddd565b8d01612e868187612dcd565b5b82811015612e9b5760008152602001612e87565b50929d50505050505050565b638540661f598160e01b8152836004820152846024820152606060448201528660648201526084810160005b88811015612eeb578088015182820152602001612ed3565b506060828960a40184336000905af158600e01573d6000803e3d6000fd5b3d6001141558600a015760016000f35b815160408301513d6000853e8b8b82606087013350600060045af15059612f408d3d612ddd565b8c01612f4c8187612dcd565b5b82811015612f615760008152602001612f4d565b50929c50505050505050565b6373509064598160e01b8152602081600483336000905af158600e01573d6000803e3d6000fd5b3d6001141558600a015760016000f35b80516000825293506020612d0b565b635a98c361598160e01b8152602081600483336000905af158600e01573d6000803e3d6000fd5b3d6001141558600a015760016000f35b80516000825293506020612d0b565b6040518060800160405280600081526020016000815260200160008152602001600081525090565b80356001600160a01b0381168114610f5d5760008061303e612c5c565b5050919050565b60008083601f84011261305f57818261305c612c5c565b50505b5081356001600160401b0381111561307e57818261307b612c5c565b50505b602083019150836020828501011115612b795760008061309c612c5c565b50509250929050565b600082601f8301126130be5780816130bb612c5c565b50505b81356001600160401b03808211156130d257fe5b604051601f8301601f1916810160200182811182821017156130f057fe5b60405282815284830160200186101561311057838461310d612c5c565b50505b82602086016020830137918201602001929092529392505050565b600060808284031215613145578081613142612c5c565b50505b604051608081016001600160401b038111828210171561316157fe5b60405290508061317083613021565b81526020830135602082015260408301356040820152606083013560608201525092915050565b6000602082840312156131b15780816131ae612c5c565b50505b61212882613021565b600080604083850312156131d55780816131d2612c5c565b50505b6131de83613021565b91506131ec60208401613021565b90509250929050565b60008060006060848603121561321257808161320f612c5c565b50505b61321b84613021565b925061322960208501613021565b9150604084013590509250925092565b600060208284031215613253578081613250612c5c565b50505b81518015158114612128578182613268612c5c565b50509392505050565b60006020828403121561328b578081613288612c5c565b50505b5035919050565b6000602082840312156132ac5780816132a9612c5c565b50505b81519392505050565b6000806000606084860312156132d25782836132cf612c5c565b50505b833592506132e260208501613021565b91506132f060408501613021565b90509250925092565b6000806000806000806000806000806101008b8d03121561332157858661331e612c5c565b50505b8a35995061333160208c01613021565b985061333f60408c01613021565b975060608b0135965060808b0135955060a08b0135945060c08b01356001600160401b0380821115613378578586613375612c5c565b50505b6133848e838f01613045565b909650945060e08d01359150808211156133a55783846133a2612c5c565b50505b506133b28d828e01613045565b915080935050809150509295989b9194979a5092959850565b600080600080600080600080610100898b0312156133f05783846133ed612c5c565b50505b8835975061340060208a01613021565b965061340e60408a01613021565b9550606089013594506080890135935060a0890135925060c08901356001600160401b0380821115613447578384613444612c5c565b50505b6134538c838d016130a5565b935060e08b013591508082111561347157828361346e612c5c565b50505b5061347e8b828c016130a5565b9150509295985092959890939650565b600080600080608085870312156134ac5781826134a9612c5c565b50505b843593506134bc60208601613021565b92506134ca60408601613021565b915060608501356001600160401b038111156134ed5781826134ea612c5c565b50505b6134f9878288016130a5565b91505092959194509250565b60008060008060808587031215613523578182613520612c5c565b50505b8435935061353360208601613021565b92506040850135915061354860608601613021565b905092959194509250565b60008060008060008060008060006101208a8c03121561357a578283613577612c5c565b50505b8935985061358a60208b01613021565b975060408a0135965060608a0135955060808a013594506135ad60a08b01613021565b935060c08a0135925060e08a013591506101008a013590509295985092959850929598565b60008060008060008060008060c0898b0312156135f65781826135f3612c5c565b50505b8835975061360660208a01613021565b9650604089013595506060890135945060808901356001600160401b0380821115613638578384613635612c5c565b50505b6136448c838d01613045565b909650945060a08b0135915080821115613665578384613662612c5c565b50505b506136728b828c01613045565b999c989b5096995094979396929594505050565b600080600061012084860312156136a45780816136a1612c5c565b50505b833592506136b5856020860161312b565b91506132f08560a0860161312b565b6001600160601b0319606093841b811682529190921b16601482015260280190565b9283526001600160601b0319606092831b81166020850152911b16603482015260480190565b9283526020830191909152604082015260600190565b6001600160a01b0391909116815260200190565b6001600160a01b039384168152919092166020820152604081019190915260600190565b6001600160a01b03929092168252602082015260400190565b901515815260200190565b90815260200190565b93845260208401929092526040830152606082015260800190565b82815260408101600583106137b357fe5b8260208301529392505050565b968752602087019590955292151560408601526060850191909152608084015260a083015260c082015260e0019056fe19457468657265756d205369676e6564204d6573736167653a0a000000000000",
  "devdoc": {
    "kind": "dev",
    "methods": {
      "constructor": {
        "params": {
          "_chain_id": "EIP-155 Chain-ID of the chain where this contract is deployed",
          "_max_token_networks": "the number of tokens that can be registered MAX_UINT256 means no limits",
          "_secret_registry_address": "The address of SecretRegistry that's used by all TokenNetworks created by this contract",
          "_settlement_timeout_max": "The longest settlement period (in number of blocks) that can be chosen at the channel opening",
          "_settlement_timeout_min": "The shortest settlement period (in number of blocks) that can be chosen at the channel opening"
        }
      },
      "contractExists(address)": {
        "params": {
          "contract_address": "The address to check whether a contract is deployed or not"
        },
        "returns": {
          "_0": "True if a contract exists, false otherwise"
        }
      },
      "createERC20TokenNetwork(address,uint256,uint256)": {
        "params": {
          "_token_address": "Ethereum address of an already deployed token, to be used in the new TokenNetwork contract"
        }
      }
    },
    "title": "TokenNetworkRegistry",
    "version": 1
  },
  "userdoc": {
    "kind": "user",
    "methods": {
      "contractExists(address)": {
        "notice": "Check if a contract exists"
      },
      "createERC20TokenNetwork(address,uint256,uint256)": {
        "notice": "Deploy a new TokenNetwork contract for the Token deployed at `_token_address`"
      }
    },
    "notice": "The TokenNetwork Registry deploys new TokenNetwork contracts for the Raiden Network protocol.",
    "version": 1
  },
  "storageLayout": {
    "storage": [
      {
        "astId": 2898,
        "contract": "data/source/raiden/TokenNetworkRegistry.sol:TokenNetworkRegistry",
        "label": "secret_registry_address",
        "offset": 0,
        "slot": "0",
        "type": "t_address"
      },
      {
        "astId": 2900,
        "contract": "data/source/raiden/TokenNetworkRegistry.sol:TokenNetworkRegistry",
        "label": "chain_id",
        "offset": 0,
        "slot": "1",
        "type": "t_uint256"
      },
      {
        "astId": 2902,
        "contract": "data/source/raiden/TokenNetworkRegistry.sol:TokenNetworkRegistry",
        "label": "settlement_timeout_min",
        "offset": 0,
        "slot": "2",
        "type": "t_uint256"
      },
      {
        "astId": 2904,
        "contract": "data/source/raiden/TokenNetworkRegistry.sol:TokenNetworkRegistry",
        "label": "settlement_timeout_max",
        "offset": 0,
        "slot": "3",
        "type": "t_uint256"
      },
      {
        "astId": 2906,
        "contract": "data/source/raiden/TokenNetworkRegistry.sol:TokenNetworkRegistry",
        "label": "max_token_networks",
        "offset": 0,
        "slot": "4",
        "type": "t_uint256"
      },
      {
        "astId": 2908,
        "contract": "data/source/raiden/TokenNetworkRegistry.sol:TokenNetworkRegistry",
        "label": "deprecation_executor",
        "offset": 0,
        "slot": "5",
        "type": "t_address"
      },
      {
        "astId": 2911,
        "contract": "data/source/raiden/TokenNetworkRegistry.sol:TokenNetworkRegistry",
        "label": "token_network_created",
        "offset": 0,
        "slot": "6",
        "type": "t_uint256"
      },
      {
        "astId": 2915,
        "contract": "data/source/raiden/TokenNetworkRegistry.sol:TokenNetworkRegistry",
        "label": "token_to_token_networks",
        "offset": 0,
        "slot": "7",
        "type": "t_mapping(t_address,t_address)"
      }
    ],
    "types": {
      "t_address": {
        "encoding": "inplace",
        "label": "address",
        "numberOfBytes": "20"
      },
      "t_mapping(t_address,t_address)": {
        "encoding": "mapping",
        "key": "t_address",
        "label": "mapping(address => address)",
        "numberOfBytes": "32",
        "value": "t_address"
      },
      "t_uint256": {
        "encoding": "inplace",
        "label": "uint256",
        "numberOfBytes": "32"
      }
    }
  }
}